{
    "_format": "hh-sol-artifact-1",
    "contractName": "CUCI",
    "sourceName": "contracts/Collection.sol",
    "abi": [
        {
            "inputs": [],
            "stateMutability": "nonpayable",
            "type": "constructor"
        },
        {
            "anonymous": false,
            "inputs": [
                {
                    "indexed": true,
                    "internalType": "address",
                    "name": "owner",
                    "type": "address"
                },
                {
                    "indexed": true,
                    "internalType": "address",
                    "name": "approved",
                    "type": "address"
                },
                {
                    "indexed": true,
                    "internalType": "uint256",
                    "name": "tokenId",
                    "type": "uint256"
                }
            ],
            "name": "Approval",
            "type": "event"
        },
        {
            "anonymous": false,
            "inputs": [
                {
                    "indexed": true,
                    "internalType": "address",
                    "name": "owner",
                    "type": "address"
                },
                {
                    "indexed": true,
                    "internalType": "address",
                    "name": "operator",
                    "type": "address"
                },
                {
                    "indexed": false,
                    "internalType": "bool",
                    "name": "approved",
                    "type": "bool"
                }
            ],
            "name": "ApprovalForAll",
            "type": "event"
        },
        {
            "anonymous": false,
            "inputs": [
                {
                    "indexed": true,
                    "internalType": "address",
                    "name": "previousOwner",
                    "type": "address"
                },
                {
                    "indexed": true,
                    "internalType": "address",
                    "name": "newOwner",
                    "type": "address"
                }
            ],
            "name": "OwnershipTransferred",
            "type": "event"
        },
        {
            "anonymous": false,
            "inputs": [
                {
                    "indexed": true,
                    "internalType": "address",
                    "name": "from",
                    "type": "address"
                },
                {
                    "indexed": true,
                    "internalType": "address",
                    "name": "to",
                    "type": "address"
                },
                {
                    "indexed": true,
                    "internalType": "uint256",
                    "name": "tokenId",
                    "type": "uint256"
                }
            ],
            "name": "Transfer",
            "type": "event"
        },
        {
            "inputs": [],
            "name": "LIMIT_PER_ADDRESS",
            "outputs": [
                {
                    "internalType": "uint256",
                    "name": "",
                    "type": "uint256"
                }
            ],
            "stateMutability": "view",
            "type": "function"
        },
        {
            "inputs": [],
            "name": "MAX_SUPPLY",
            "outputs": [
                {
                    "internalType": "uint256",
                    "name": "",
                    "type": "uint256"
                }
            ],
            "stateMutability": "view",
            "type": "function"
        },
        {
            "inputs": [],
            "name": "PRICE",
            "outputs": [
                {
                    "internalType": "uint256",
                    "name": "",
                    "type": "uint256"
                }
            ],
            "stateMutability": "view",
            "type": "function"
        },
        {
            "inputs": [
                {
                    "internalType": "address",
                    "name": "to",
                    "type": "address"
                },
                {
                    "internalType": "uint256",
                    "name": "tokenId",
                    "type": "uint256"
                }
            ],
            "name": "approve",
            "outputs": [],
            "stateMutability": "nonpayable",
            "type": "function"
        },
        {
            "inputs": [
                {
                    "internalType": "address",
                    "name": "owner",
                    "type": "address"
                }
            ],
            "name": "balanceOf",
            "outputs": [
                {
                    "internalType": "uint256",
                    "name": "",
                    "type": "uint256"
                }
            ],
            "stateMutability": "view",
            "type": "function"
        },
        {
            "inputs": [
                {
                    "internalType": "uint256",
                    "name": "tokenId",
                    "type": "uint256"
                }
            ],
            "name": "getApproved",
            "outputs": [
                {
                    "internalType": "address",
                    "name": "",
                    "type": "address"
                }
            ],
            "stateMutability": "view",
            "type": "function"
        },
        {
            "inputs": [
                {
                    "internalType": "address",
                    "name": "owner",
                    "type": "address"
                },
                {
                    "internalType": "address",
                    "name": "operator",
                    "type": "address"
                }
            ],
            "name": "isApprovedForAll",
            "outputs": [
                {
                    "internalType": "bool",
                    "name": "",
                    "type": "bool"
                }
            ],
            "stateMutability": "view",
            "type": "function"
        },
        {
            "inputs": [
                {
                    "internalType": "string",
                    "name": "tokenURI",
                    "type": "string"
                }
            ],
            "name": "mint",
            "outputs": [
                {
                    "internalType": "uint256",
                    "name": "",
                    "type": "uint256"
                }
            ],
            "stateMutability": "payable",
            "type": "function"
        },
        {
            "inputs": [],
            "name": "name",
            "outputs": [
                {
                    "internalType": "string",
                    "name": "",
                    "type": "string"
                }
            ],
            "stateMutability": "view",
            "type": "function"
        },
        {
            "inputs": [],
            "name": "owner",
            "outputs": [
                {
                    "internalType": "address",
                    "name": "",
                    "type": "address"
                }
            ],
            "stateMutability": "view",
            "type": "function"
        },
        {
            "inputs": [
                {
                    "internalType": "uint256",
                    "name": "tokenId",
                    "type": "uint256"
                }
            ],
            "name": "ownerOf",
            "outputs": [
                {
                    "internalType": "address",
                    "name": "",
                    "type": "address"
                }
            ],
            "stateMutability": "view",
            "type": "function"
        },
        {
            "inputs": [],
            "name": "renounceOwnership",
            "outputs": [],
            "stateMutability": "nonpayable",
            "type": "function"
        },
        {
            "inputs": [
                {
                    "internalType": "address",
                    "name": "from",
                    "type": "address"
                },
                {
                    "internalType": "address",
                    "name": "to",
                    "type": "address"
                },
                {
                    "internalType": "uint256",
                    "name": "tokenId",
                    "type": "uint256"
                }
            ],
            "name": "safeTransferFrom",
            "outputs": [],
            "stateMutability": "nonpayable",
            "type": "function"
        },
        {
            "inputs": [
                {
                    "internalType": "address",
                    "name": "from",
                    "type": "address"
                },
                {
                    "internalType": "address",
                    "name": "to",
                    "type": "address"
                },
                {
                    "internalType": "uint256",
                    "name": "tokenId",
                    "type": "uint256"
                },
                {
                    "internalType": "bytes",
                    "name": "data",
                    "type": "bytes"
                }
            ],
            "name": "safeTransferFrom",
            "outputs": [],
            "stateMutability": "nonpayable",
            "type": "function"
        },
        {
            "inputs": [
                {
                    "internalType": "address",
                    "name": "operator",
                    "type": "address"
                },
                {
                    "internalType": "bool",
                    "name": "approved",
                    "type": "bool"
                }
            ],
            "name": "setApprovalForAll",
            "outputs": [],
            "stateMutability": "nonpayable",
            "type": "function"
        },
        {
            "inputs": [
                {
                    "internalType": "uint256",
                    "name": "limit",
                    "type": "uint256"
                }
            ],
            "name": "setLimit",
            "outputs": [],
            "stateMutability": "nonpayable",
            "type": "function"
        },
        {
            "inputs": [
                {
                    "internalType": "uint256",
                    "name": "max_supply",
                    "type": "uint256"
                }
            ],
            "name": "setMaxSupply",
            "outputs": [],
            "stateMutability": "nonpayable",
            "type": "function"
        },
        {
            "inputs": [
                {
                    "internalType": "uint256",
                    "name": "_price",
                    "type": "uint256"
                }
            ],
            "name": "setPrice",
            "outputs": [],
            "stateMutability": "nonpayable",
            "type": "function"
        },
        {
            "inputs": [
                {
                    "internalType": "bytes4",
                    "name": "interfaceId",
                    "type": "bytes4"
                }
            ],
            "name": "supportsInterface",
            "outputs": [
                {
                    "internalType": "bool",
                    "name": "",
                    "type": "bool"
                }
            ],
            "stateMutability": "view",
            "type": "function"
        },
        {
            "inputs": [],
            "name": "symbol",
            "outputs": [
                {
                    "internalType": "string",
                    "name": "",
                    "type": "string"
                }
            ],
            "stateMutability": "view",
            "type": "function"
        },
        {
            "inputs": [
                {
                    "internalType": "uint256",
                    "name": "tokenId",
                    "type": "uint256"
                }
            ],
            "name": "tokenURI",
            "outputs": [
                {
                    "internalType": "string",
                    "name": "",
                    "type": "string"
                }
            ],
            "stateMutability": "view",
            "type": "function"
        },
        {
            "inputs": [
                {
                    "internalType": "address",
                    "name": "from",
                    "type": "address"
                },
                {
                    "internalType": "address",
                    "name": "to",
                    "type": "address"
                },
                {
                    "internalType": "uint256",
                    "name": "tokenId",
                    "type": "uint256"
                }
            ],
            "name": "transferFrom",
            "outputs": [],
            "stateMutability": "nonpayable",
            "type": "function"
        },
        {
            "inputs": [
                {
                    "internalType": "address",
                    "name": "newOwner",
                    "type": "address"
                }
            ],
            "name": "transferOwnership",
            "outputs": [],
            "stateMutability": "nonpayable",
            "type": "function"
        },
        {
            "inputs": [],
            "name": "withdraw",
            "outputs": [],
            "stateMutability": "nonpayable",
            "type": "function"
        }
    ],
    "bytecode": "0x6080604052655af3107a4000600c556005600d556032600e553480156200002557600080fd5b506040518060400160405280600481526020017f43554349000000000000000000000000000000000000000000000000000000008152506040518060400160405280600581526020017f43552e43490000000000000000000000000000000000000000000000000000008152508160009081620000a3919062000426565b508060019081620000b5919062000426565b505050620000d8620000cc620000de60201b60201c565b620000e660201b60201c565b6200050d565b600033905090565b6000600760009054906101000a900473ffffffffffffffffffffffffffffffffffffffff16905081600760006101000a81548173ffffffffffffffffffffffffffffffffffffffff021916908373ffffffffffffffffffffffffffffffffffffffff1602179055508173ffffffffffffffffffffffffffffffffffffffff168173ffffffffffffffffffffffffffffffffffffffff167f8be0079c531659141344cd1fd0a4f28419497f9722a3daafe3b4186f6b6457e060405160405180910390a35050565b600081519050919050565b7f4e487b7100000000000000000000000000000000000000000000000000000000600052604160045260246000fd5b7f4e487b7100000000000000000000000000000000000000000000000000000000600052602260045260246000fd5b600060028204905060018216806200022e57607f821691505b602082108103620002445762000243620001e6565b5b50919050565b60008190508160005260206000209050919050565b60006020601f8301049050919050565b600082821b905092915050565b600060088302620002ae7fffffffffffffffffffffffffffffffffffffffffffffffffffffffffffffffff826200026f565b620002ba86836200026f565b95508019841693508086168417925050509392505050565b6000819050919050565b6000819050919050565b60006200030762000301620002fb84620002d2565b620002dc565b620002d2565b9050919050565b6000819050919050565b6200032383620002e6565b6200033b62000332826200030e565b8484546200027c565b825550505050565b600090565b6200035262000343565b6200035f81848462000318565b505050565b5b8181101562000387576200037b60008262000348565b60018101905062000365565b5050565b601f821115620003d657620003a0816200024a565b620003ab846200025f565b81016020851015620003bb578190505b620003d3620003ca856200025f565b83018262000364565b50505b505050565b600082821c905092915050565b6000620003fb60001984600802620003db565b1980831691505092915050565b6000620004168383620003e8565b9150826002028217905092915050565b6200043182620001ac565b67ffffffffffffffff8111156200044d576200044c620001b7565b5b62000459825462000215565b620004668282856200038b565b600060209050601f8311600181146200049e576000841562000489578287015190505b62000495858262000408565b86555062000505565b601f198416620004ae866200024a565b60005b82811015620004d857848901518255600182019150602085019450602081019050620004b1565b86831015620004f85784890151620004f4601f891682620003e8565b8355505b6001600288020188555050505b505050505050565b61342e806200051d6000396000f3fe60806040526004361061014b5760003560e01c806370a08231116100b6578063a22cb4651161006f578063a22cb4651461046a578063b88d4fde14610493578063c87b56dd146104bc578063d85d3d27146104f9578063e985e9c514610529578063f2fde38b146105665761014b565b806370a082311461036c578063715018a6146103a95780638d859f3e146103c05780638da5cb5b146103eb57806391b7f5ed1461041657806395d89b411461043f5761014b565b806332cb6b0c1161010857806332cb6b0c146102705780633ccfd60b1461029b578063417bac1a146102b257806342842e0e146102dd5780636352211e146103065780636f8b44b0146103435761014b565b806301ffc9a71461015057806306fdde031461018d578063081812fc146101b8578063095ea7b3146101f557806323b872dd1461021e57806327ea6f2b14610247575b600080fd5b34801561015c57600080fd5b5061017760048036038101906101729190611efb565b61058f565b6040516101849190611f43565b60405180910390f35b34801561019957600080fd5b506101a2610671565b6040516101af9190611fee565b60405180910390f35b3480156101c457600080fd5b506101df60048036038101906101da9190612046565b610703565b6040516101ec91906120b4565b60405180910390f35b34801561020157600080fd5b5061021c600480360381019061021791906120fb565b610749565b005b34801561022a57600080fd5b506102456004803603810190610240919061213b565b610860565b005b34801561025357600080fd5b5061026e60048036038101906102699190612046565b6108c0565b005b34801561027c57600080fd5b506102856108d2565b604051610292919061219d565b60405180910390f35b3480156102a757600080fd5b506102b06108d8565b005b3480156102be57600080fd5b506102c761092f565b6040516102d4919061219d565b60405180910390f35b3480156102e957600080fd5b5061030460048036038101906102ff919061213b565b610935565b005b34801561031257600080fd5b5061032d60048036038101906103289190612046565b610955565b60405161033a91906120b4565b60405180910390f35b34801561034f57600080fd5b5061036a60048036038101906103659190612046565b610a06565b005b34801561037857600080fd5b50610393600480360381019061038e91906121b8565b610a18565b6040516103a0919061219d565b60405180910390f35b3480156103b557600080fd5b506103be610acf565b005b3480156103cc57600080fd5b506103d5610ae3565b6040516103e2919061219d565b60405180910390f35b3480156103f757600080fd5b50610400610ae9565b60405161040d91906120b4565b60405180910390f35b34801561042257600080fd5b5061043d60048036038101906104389190612046565b610b13565b005b34801561044b57600080fd5b50610454610b25565b6040516104619190611fee565b60405180910390f35b34801561047657600080fd5b50610491600480360381019061048c9190612211565b610bb7565b005b34801561049f57600080fd5b506104ba60048036038101906104b59190612386565b610bcd565b005b3480156104c857600080fd5b506104e360048036038101906104de9190612046565b610c2f565b6040516104f09190611fee565b60405180910390f35b610513600480360381019061050e91906124aa565b610d41565b604051610520919061219d565b60405180910390f35b34801561053557600080fd5b50610550600480360381019061054b91906124f3565b610f92565b60405161055d9190611f43565b60405180910390f35b34801561057257600080fd5b5061058d600480360381019061058891906121b8565b611026565b005b60007f80ac58cd000000000000000000000000000000000000000000000000000000007bffffffffffffffffffffffffffffffffffffffffffffffffffffffff1916827bffffffffffffffffffffffffffffffffffffffffffffffffffffffff1916148061065a57507f5b5e139f000000000000000000000000000000000000000000000000000000007bffffffffffffffffffffffffffffffffffffffffffffffffffffffff1916827bffffffffffffffffffffffffffffffffffffffffffffffffffffffff1916145b8061066a5750610669826110a9565b5b9050919050565b60606000805461068090612562565b80601f01602080910402602001604051908101604052809291908181526020018280546106ac90612562565b80156106f95780601f106106ce576101008083540402835291602001916106f9565b820191906000526020600020905b8154815290600101906020018083116106dc57829003601f168201915b5050505050905090565b600061070e82611113565b6004600083815260200190815260200160002060009054906101000a900473ffffffffffffffffffffffffffffffffffffffff169050919050565b600061075482610955565b90508073ffffffffffffffffffffffffffffffffffffffff168373ffffffffffffffffffffffffffffffffffffffff16036107c4576040517f08c379a00000000000000000000000000000000000000000000000000000000081526004016107bb90612605565b60405180910390fd5b8073ffffffffffffffffffffffffffffffffffffffff166107e361115e565b73ffffffffffffffffffffffffffffffffffffffff16148061081257506108118161080c61115e565b610f92565b5b610851576040517f08c379a000000000000000000000000000000000000000000000000000000000815260040161084890612697565b60405180910390fd5b61085b8383611166565b505050565b61087161086b61115e565b8261121f565b6108b0576040517f08c379a00000000000000000000000000000000000000000000000000000000081526004016108a790612729565b60405180910390fd5b6108bb8383836112b4565b505050565b6108c861151a565b80600d8190555050565b600e5481565b6108e061151a565b60003390508073ffffffffffffffffffffffffffffffffffffffff166108fc479081150290604051600060405180830381858888f1935050505015801561092b573d6000803e3d6000fd5b5050565b600d5481565b61095083838360405180602001604052806000815250610bcd565b505050565b6000806002600084815260200190815260200160002060009054906101000a900473ffffffffffffffffffffffffffffffffffffffff169050600073ffffffffffffffffffffffffffffffffffffffff168173ffffffffffffffffffffffffffffffffffffffff16036109fd576040517f08c379a00000000000000000000000000000000000000000000000000000000081526004016109f490612795565b60405180910390fd5b80915050919050565b610a0e61151a565b80600e8190555050565b60008073ffffffffffffffffffffffffffffffffffffffff168273ffffffffffffffffffffffffffffffffffffffff1603610a88576040517f08c379a0000000000000000000000000000000000000000000000000000000008152600401610a7f90612827565b60405180910390fd5b600360008373ffffffffffffffffffffffffffffffffffffffff1673ffffffffffffffffffffffffffffffffffffffff168152602001908152602001600020549050919050565b610ad761151a565b610ae16000611598565b565b600c5481565b6000600760009054906101000a900473ffffffffffffffffffffffffffffffffffffffff16905090565b610b1b61151a565b80600c8190555050565b606060018054610b3490612562565b80601f0160208091040260200160405190810160405280929190818152602001828054610b6090612562565b8015610bad5780601f10610b8257610100808354040283529160200191610bad565b820191906000526020600020905b815481529060010190602001808311610b9057829003601f168201915b5050505050905090565b610bc9610bc261115e565b838361165e565b5050565b610bde610bd861115e565b8361121f565b610c1d576040517f08c379a0000000000000000000000000000000000000000000000000000000008152600401610c1490612729565b60405180910390fd5b610c29848484846117ca565b50505050565b6060610c3a82611113565b6000600660008481526020019081526020016000208054610c5a90612562565b80601f0160208091040260200160405190810160405280929190818152602001828054610c8690612562565b8015610cd35780601f10610ca857610100808354040283529160200191610cd3565b820191906000526020600020905b815481529060010190602001808311610cb657829003601f168201915b505050505090506000610ce4611826565b90506000815103610cf9578192505050610d3c565b600082511115610d2e578082604051602001610d16929190612883565b60405160208183030381529060405292505050610d3c565b610d378461183d565b925050505b919050565b600034600c541115610d88576040517f08c379a0000000000000000000000000000000000000000000000000000000008152600401610d7f906128f3565b60405180910390fd5b600d54600a60003373ffffffffffffffffffffffffffffffffffffffff1673ffffffffffffffffffffffffffffffffffffffff1681526020019081526020016000205410610e0b576040517f08c379a0000000000000000000000000000000000000000000000000000000008152600401610e029061295f565b60405180910390fd5b600e546001610e1a60096118a5565b610e2491906129ae565b1115610e65576040517f08c379a0000000000000000000000000000000000000000000000000000000008152600401610e5c90612a2e565b60405180910390fd5b6000600b83604051610e779190612a4e565b90815260200160405180910390205414610ec6576040517f08c379a0000000000000000000000000000000000000000000000000000000008152600401610ebd90612ab1565b60405180910390fd5b6001600b83604051610ed89190612a4e565b90815260200160405180910390206000828254610ef591906129ae565b925050819055506001600a60003373ffffffffffffffffffffffffffffffffffffffff1673ffffffffffffffffffffffffffffffffffffffff1681526020019081526020016000206000828254610f4c91906129ae565b92505081905550610f5d60086118b3565b610f6760096118b3565b6000610f7360086118a5565b9050610f7f33826118c9565b610f898184611aa2565b80915050919050565b6000600560008473ffffffffffffffffffffffffffffffffffffffff1673ffffffffffffffffffffffffffffffffffffffff16815260200190815260200160002060008373ffffffffffffffffffffffffffffffffffffffff1673ffffffffffffffffffffffffffffffffffffffff16815260200190815260200160002060009054906101000a900460ff16905092915050565b61102e61151a565b600073ffffffffffffffffffffffffffffffffffffffff168173ffffffffffffffffffffffffffffffffffffffff160361109d576040517f08c379a000000000000000000000000000000000000000000000000000000000815260040161109490612b43565b60405180910390fd5b6110a681611598565b50565b60007f01ffc9a7000000000000000000000000000000000000000000000000000000007bffffffffffffffffffffffffffffffffffffffffffffffffffffffff1916827bffffffffffffffffffffffffffffffffffffffffffffffffffffffff1916149050919050565b61111c81611b0f565b61115b576040517f08c379a000000000000000000000000000000000000000000000000000000000815260040161115290612795565b60405180910390fd5b50565b600033905090565b816004600083815260200190815260200160002060006101000a81548173ffffffffffffffffffffffffffffffffffffffff021916908373ffffffffffffffffffffffffffffffffffffffff160217905550808273ffffffffffffffffffffffffffffffffffffffff166111d983610955565b73ffffffffffffffffffffffffffffffffffffffff167f8c5be1e5ebec7d5bd14f71427d1e84f3dd0314c0f7b2291e5b200ac8c7c3b92560405160405180910390a45050565b60008061122b83610955565b90508073ffffffffffffffffffffffffffffffffffffffff168473ffffffffffffffffffffffffffffffffffffffff16148061126d575061126c8185610f92565b5b806112ab57508373ffffffffffffffffffffffffffffffffffffffff1661129384610703565b73ffffffffffffffffffffffffffffffffffffffff16145b91505092915050565b8273ffffffffffffffffffffffffffffffffffffffff166112d482610955565b73ffffffffffffffffffffffffffffffffffffffff161461132a576040517f08c379a000000000000000000000000000000000000000000000000000000000815260040161132190612bd5565b60405180910390fd5b600073ffffffffffffffffffffffffffffffffffffffff168273ffffffffffffffffffffffffffffffffffffffff1603611399576040517f08c379a000000000000000000000000000000000000000000000000000000000815260040161139090612c67565b60405180910390fd5b6113a4838383611b7b565b6113af600082611166565b6001600360008573ffffffffffffffffffffffffffffffffffffffff1673ffffffffffffffffffffffffffffffffffffffff16815260200190815260200160002060008282546113ff9190612c87565b925050819055506001600360008473ffffffffffffffffffffffffffffffffffffffff1673ffffffffffffffffffffffffffffffffffffffff168152602001908152602001600020600082825461145691906129ae565b92505081905550816002600083815260200190815260200160002060006101000a81548173ffffffffffffffffffffffffffffffffffffffff021916908373ffffffffffffffffffffffffffffffffffffffff160217905550808273ffffffffffffffffffffffffffffffffffffffff168473ffffffffffffffffffffffffffffffffffffffff167fddf252ad1be2c89b69c2b068fc378daa952ba7f163c4a11628f55a4df523b3ef60405160405180910390a4611515838383611b80565b505050565b61152261115e565b73ffffffffffffffffffffffffffffffffffffffff16611540610ae9565b73ffffffffffffffffffffffffffffffffffffffff1614611596576040517f08c379a000000000000000000000000000000000000000000000000000000000815260040161158d90612d07565b60405180910390fd5b565b6000600760009054906101000a900473ffffffffffffffffffffffffffffffffffffffff16905081600760006101000a81548173ffffffffffffffffffffffffffffffffffffffff021916908373ffffffffffffffffffffffffffffffffffffffff1602179055508173ffffffffffffffffffffffffffffffffffffffff168173ffffffffffffffffffffffffffffffffffffffff167f8be0079c531659141344cd1fd0a4f28419497f9722a3daafe3b4186f6b6457e060405160405180910390a35050565b8173ffffffffffffffffffffffffffffffffffffffff168373ffffffffffffffffffffffffffffffffffffffff16036116cc576040517f08c379a00000000000000000000000000000000000000000000000000000000081526004016116c390612d73565b60405180910390fd5b80600560008573ffffffffffffffffffffffffffffffffffffffff1673ffffffffffffffffffffffffffffffffffffffff16815260200190815260200160002060008473ffffffffffffffffffffffffffffffffffffffff1673ffffffffffffffffffffffffffffffffffffffff16815260200190815260200160002060006101000a81548160ff0219169083151502179055508173ffffffffffffffffffffffffffffffffffffffff168373ffffffffffffffffffffffffffffffffffffffff167f17307eab39ab6107e8899845ad3d59bd9653f200f220920489ca2b5937696c31836040516117bd9190611f43565b60405180910390a3505050565b6117d58484846112b4565b6117e184848484611b85565b611820576040517f08c379a000000000000000000000000000000000000000000000000000000000815260040161181790612e05565b60405180910390fd5b50505050565b606060405180602001604052806000815250905090565b606061184882611113565b6000611852611826565b90506000815111611872576040518060200160405280600081525061189d565b8061187c84611d0c565b60405160200161188d929190612883565b6040516020818303038152906040525b915050919050565b600081600001549050919050565b6001816000016000828254019250508190555050565b600073ffffffffffffffffffffffffffffffffffffffff168273ffffffffffffffffffffffffffffffffffffffff1603611938576040517f08c379a000000000000000000000000000000000000000000000000000000000815260040161192f90612e71565b60405180910390fd5b61194181611b0f565b15611981576040517f08c379a000000000000000000000000000000000000000000000000000000000815260040161197890612edd565b60405180910390fd5b61198d60008383611b7b565b6001600360008473ffffffffffffffffffffffffffffffffffffffff1673ffffffffffffffffffffffffffffffffffffffff16815260200190815260200160002060008282546119dd91906129ae565b92505081905550816002600083815260200190815260200160002060006101000a81548173ffffffffffffffffffffffffffffffffffffffff021916908373ffffffffffffffffffffffffffffffffffffffff160217905550808273ffffffffffffffffffffffffffffffffffffffff16600073ffffffffffffffffffffffffffffffffffffffff167fddf252ad1be2c89b69c2b068fc378daa952ba7f163c4a11628f55a4df523b3ef60405160405180910390a4611a9e60008383611b80565b5050565b611aab82611b0f565b611aea576040517f08c379a0000000000000000000000000000000000000000000000000000000008152600401611ae190612f6f565b60405180910390fd5b80600660008481526020019081526020016000209081611b0a919061313b565b505050565b60008073ffffffffffffffffffffffffffffffffffffffff166002600084815260200190815260200160002060009054906101000a900473ffffffffffffffffffffffffffffffffffffffff1673ffffffffffffffffffffffffffffffffffffffff1614159050919050565b505050565b505050565b6000611ba68473ffffffffffffffffffffffffffffffffffffffff16611e6c565b15611cff578373ffffffffffffffffffffffffffffffffffffffff1663150b7a02611bcf61115e565b8786866040518563ffffffff1660e01b8152600401611bf19493929190613262565b6020604051808303816000875af1925050508015611c2d57506040513d601f19601f82011682018060405250810190611c2a91906132c3565b60015b611caf573d8060008114611c5d576040519150601f19603f3d011682016040523d82523d6000602084013e611c62565b606091505b506000815103611ca7576040517f08c379a0000000000000000000000000000000000000000000000000000000008152600401611c9e90612e05565b60405180910390fd5b805181602001fd5b63150b7a0260e01b7bffffffffffffffffffffffffffffffffffffffffffffffffffffffff1916817bffffffffffffffffffffffffffffffffffffffffffffffffffffffff191614915050611d04565b600190505b949350505050565b606060008203611d53576040518060400160405280600181526020017f30000000000000000000000000000000000000000000000000000000000000008152509050611e67565b600082905060005b60008214611d85578080611d6e906132f0565b915050600a82611d7e9190613367565b9150611d5b565b60008167ffffffffffffffff811115611da157611da061225b565b5b6040519080825280601f01601f191660200182016040528015611dd35781602001600182028036833780820191505090505b5090505b60008514611e6057600182611dec9190612c87565b9150600a85611dfb9190613398565b6030611e0791906129ae565b60f81b818381518110611e1d57611e1c6133c9565b5b60200101907effffffffffffffffffffffffffffffffffffffffffffffffffffffffffffff1916908160001a905350600a85611e599190613367565b9450611dd7565b8093505050505b919050565b6000808273ffffffffffffffffffffffffffffffffffffffff163b119050919050565b6000604051905090565b600080fd5b600080fd5b60007fffffffff0000000000000000000000000000000000000000000000000000000082169050919050565b611ed881611ea3565b8114611ee357600080fd5b50565b600081359050611ef581611ecf565b92915050565b600060208284031215611f1157611f10611e99565b5b6000611f1f84828501611ee6565b91505092915050565b60008115159050919050565b611f3d81611f28565b82525050565b6000602082019050611f586000830184611f34565b92915050565b600081519050919050565b600082825260208201905092915050565b60005b83811015611f98578082015181840152602081019050611f7d565b60008484015250505050565b6000601f19601f8301169050919050565b6000611fc082611f5e565b611fca8185611f69565b9350611fda818560208601611f7a565b611fe381611fa4565b840191505092915050565b600060208201905081810360008301526120088184611fb5565b905092915050565b6000819050919050565b61202381612010565b811461202e57600080fd5b50565b6000813590506120408161201a565b92915050565b60006020828403121561205c5761205b611e99565b5b600061206a84828501612031565b91505092915050565b600073ffffffffffffffffffffffffffffffffffffffff82169050919050565b600061209e82612073565b9050919050565b6120ae81612093565b82525050565b60006020820190506120c960008301846120a5565b92915050565b6120d881612093565b81146120e357600080fd5b50565b6000813590506120f5816120cf565b92915050565b6000806040838503121561211257612111611e99565b5b6000612120858286016120e6565b925050602061213185828601612031565b9150509250929050565b60008060006060848603121561215457612153611e99565b5b6000612162868287016120e6565b9350506020612173868287016120e6565b925050604061218486828701612031565b9150509250925092565b61219781612010565b82525050565b60006020820190506121b2600083018461218e565b92915050565b6000602082840312156121ce576121cd611e99565b5b60006121dc848285016120e6565b91505092915050565b6121ee81611f28565b81146121f957600080fd5b50565b60008135905061220b816121e5565b92915050565b6000806040838503121561222857612227611e99565b5b6000612236858286016120e6565b9250506020612247858286016121fc565b9150509250929050565b600080fd5b600080fd5b7f4e487b7100000000000000000000000000000000000000000000000000000000600052604160045260246000fd5b61229382611fa4565b810181811067ffffffffffffffff821117156122b2576122b161225b565b5b80604052505050565b60006122c5611e8f565b90506122d1828261228a565b919050565b600067ffffffffffffffff8211156122f1576122f061225b565b5b6122fa82611fa4565b9050602081019050919050565b82818337600083830152505050565b6000612329612324846122d6565b6122bb565b90508281526020810184848401111561234557612344612256565b5b612350848285612307565b509392505050565b600082601f83011261236d5761236c612251565b5b813561237d848260208601612316565b91505092915050565b600080600080608085870312156123a05761239f611e99565b5b60006123ae878288016120e6565b94505060206123bf878288016120e6565b93505060406123d087828801612031565b925050606085013567ffffffffffffffff8111156123f1576123f0611e9e565b5b6123fd87828801612358565b91505092959194509250565b600067ffffffffffffffff8211156124245761242361225b565b5b61242d82611fa4565b9050602081019050919050565b600061244d61244884612409565b6122bb565b90508281526020810184848401111561246957612468612256565b5b612474848285612307565b509392505050565b600082601f83011261249157612490612251565b5b81356124a184826020860161243a565b91505092915050565b6000602082840312156124c0576124bf611e99565b5b600082013567ffffffffffffffff8111156124de576124dd611e9e565b5b6124ea8482850161247c565b91505092915050565b6000806040838503121561250a57612509611e99565b5b6000612518858286016120e6565b9250506020612529858286016120e6565b9150509250929050565b7f4e487b7100000000000000000000000000000000000000000000000000000000600052602260045260246000fd5b6000600282049050600182168061257a57607f821691505b60208210810361258d5761258c612533565b5b50919050565b7f4552433732313a20617070726f76616c20746f2063757272656e74206f776e6560008201527f7200000000000000000000000000000000000000000000000000000000000000602082015250565b60006125ef602183611f69565b91506125fa82612593565b604082019050919050565b6000602082019050818103600083015261261e816125e2565b9050919050565b7f4552433732313a20617070726f76652063616c6c6572206973206e6f7420746f60008201527f6b656e206f776e6572206e6f7220617070726f76656420666f7220616c6c0000602082015250565b6000612681603e83611f69565b915061268c82612625565b604082019050919050565b600060208201905081810360008301526126b081612674565b9050919050565b7f4552433732313a2063616c6c6572206973206e6f7420746f6b656e206f776e6560008201527f72206e6f7220617070726f766564000000000000000000000000000000000000602082015250565b6000612713602e83611f69565b915061271e826126b7565b604082019050919050565b6000602082019050818103600083015261274281612706565b9050919050565b7f4552433732313a20696e76616c696420746f6b656e2049440000000000000000600082015250565b600061277f601883611f69565b915061278a82612749565b602082019050919050565b600060208201905081810360008301526127ae81612772565b9050919050565b7f4552433732313a2061646472657373207a65726f206973206e6f74206120766160008201527f6c6964206f776e65720000000000000000000000000000000000000000000000602082015250565b6000612811602983611f69565b915061281c826127b5565b604082019050919050565b6000602082019050818103600083015261284081612804565b9050919050565b600081905092915050565b600061285d82611f5e565b6128678185612847565b9350612877818560208601611f7a565b80840191505092915050565b600061288f8285612852565b915061289b8284612852565b91508190509392505050565b7f496e73756666696369656e742066756e64730000000000000000000000000000600082015250565b60006128dd601283611f69565b91506128e8826128a7565b602082019050919050565b6000602082019050818103600083015261290c816128d0565b9050919050565b7f596f752068617665206578636565646564206d696e74696e67206c696d697400600082015250565b6000612949601f83611f69565b915061295482612913565b602082019050919050565b600060208201905081810360008301526129788161293c565b9050919050565b7f4e487b7100000000000000000000000000000000000000000000000000000000600052601160045260246000fd5b60006129b982612010565b91506129c483612010565b92508282019050808211156129dc576129db61297f565b5b92915050565b7f596f752068617665206578636565646564204d617820537570706c7900000000600082015250565b6000612a18601c83611f69565b9150612a23826129e2565b602082019050919050565b60006020820190508181036000830152612a4781612a0b565b9050919050565b6000612a5a8284612852565b915081905092915050565b7f54686973204e46542068617320616c7265616479206265656e206d696e746564600082015250565b6000612a9b602083611f69565b9150612aa682612a65565b602082019050919050565b60006020820190508181036000830152612aca81612a8e565b9050919050565b7f4f776e61626c653a206e6577206f776e657220697320746865207a65726f206160008201527f6464726573730000000000000000000000000000000000000000000000000000602082015250565b6000612b2d602683611f69565b9150612b3882612ad1565b604082019050919050565b60006020820190508181036000830152612b5c81612b20565b9050919050565b7f4552433732313a207472616e736665722066726f6d20696e636f72726563742060008201527f6f776e6572000000000000000000000000000000000000000000000000000000602082015250565b6000612bbf602583611f69565b9150612bca82612b63565b604082019050919050565b60006020820190508181036000830152612bee81612bb2565b9050919050565b7f4552433732313a207472616e7366657220746f20746865207a65726f2061646460008201527f7265737300000000000000000000000000000000000000000000000000000000602082015250565b6000612c51602483611f69565b9150612c5c82612bf5565b604082019050919050565b60006020820190508181036000830152612c8081612c44565b9050919050565b6000612c9282612010565b9150612c9d83612010565b9250828203905081811115612cb557612cb461297f565b5b92915050565b7f4f776e61626c653a2063616c6c6572206973206e6f7420746865206f776e6572600082015250565b6000612cf1602083611f69565b9150612cfc82612cbb565b602082019050919050565b60006020820190508181036000830152612d2081612ce4565b9050919050565b7f4552433732313a20617070726f766520746f2063616c6c657200000000000000600082015250565b6000612d5d601983611f69565b9150612d6882612d27565b602082019050919050565b60006020820190508181036000830152612d8c81612d50565b9050919050565b7f4552433732313a207472616e7366657220746f206e6f6e20455243373231526560008201527f63656976657220696d706c656d656e7465720000000000000000000000000000602082015250565b6000612def603283611f69565b9150612dfa82612d93565b604082019050919050565b60006020820190508181036000830152612e1e81612de2565b9050919050565b7f4552433732313a206d696e7420746f20746865207a65726f2061646472657373600082015250565b6000612e5b602083611f69565b9150612e6682612e25565b602082019050919050565b60006020820190508181036000830152612e8a81612e4e565b9050919050565b7f4552433732313a20746f6b656e20616c7265616479206d696e74656400000000600082015250565b6000612ec7601c83611f69565b9150612ed282612e91565b602082019050919050565b60006020820190508181036000830152612ef681612eba565b9050919050565b7f45524337323155524953746f726167653a2055524920736574206f66206e6f6e60008201527f6578697374656e7420746f6b656e000000000000000000000000000000000000602082015250565b6000612f59602e83611f69565b9150612f6482612efd565b604082019050919050565b60006020820190508181036000830152612f8881612f4c565b9050919050565b60008190508160005260206000209050919050565b60006020601f8301049050919050565b600082821b905092915050565b600060088302612ff17fffffffffffffffffffffffffffffffffffffffffffffffffffffffffffffffff82612fb4565b612ffb8683612fb4565b95508019841693508086168417925050509392505050565b6000819050919050565b600061303861303361302e84612010565b613013565b612010565b9050919050565b6000819050919050565b6130528361301d565b61306661305e8261303f565b848454612fc1565b825550505050565b600090565b61307b61306e565b613086818484613049565b505050565b5b818110156130aa5761309f600082613073565b60018101905061308c565b5050565b601f8211156130ef576130c081612f8f565b6130c984612fa4565b810160208510156130d8578190505b6130ec6130e485612fa4565b83018261308b565b50505b505050565b600082821c905092915050565b6000613112600019846008026130f4565b1980831691505092915050565b600061312b8383613101565b9150826002028217905092915050565b61314482611f5e565b67ffffffffffffffff81111561315d5761315c61225b565b5b6131678254612562565b6131728282856130ae565b600060209050601f8311600181146131a55760008415613193578287015190505b61319d858261311f565b865550613205565b601f1984166131b386612f8f565b60005b828110156131db578489015182556001820191506020850194506020810190506131b6565b868310156131f857848901516131f4601f891682613101565b8355505b6001600288020188555050505b505050505050565b600081519050919050565b600082825260208201905092915050565b60006132348261320d565b61323e8185613218565b935061324e818560208601611f7a565b61325781611fa4565b840191505092915050565b600060808201905061327760008301876120a5565b61328460208301866120a5565b613291604083018561218e565b81810360608301526132a38184613229565b905095945050505050565b6000815190506132bd81611ecf565b92915050565b6000602082840312156132d9576132d8611e99565b5b60006132e7848285016132ae565b91505092915050565b60006132fb82612010565b91507fffffffffffffffffffffffffffffffffffffffffffffffffffffffffffffffff820361332d5761332c61297f565b5b600182019050919050565b7f4e487b7100000000000000000000000000000000000000000000000000000000600052601260045260246000fd5b600061337282612010565b915061337d83612010565b92508261338d5761338c613338565b5b828204905092915050565b60006133a382612010565b91506133ae83612010565b9250826133be576133bd613338565b5b828206905092915050565b7f4e487b7100000000000000000000000000000000000000000000000000000000600052603260045260246000fdfea264697066735822122066116776234700a175e4be7f71b38aff3426de3a47155bef8c08b7e0bb5965be64736f6c63430008110033",
    "linkReferences": {},
    "deployedLinkReferences": {}
}